:060000000C9453020C9465
:1000060000000C9400000C9400000C9400000C946A
:1000160000000C9400000C9400000C9400000C945A
:1000260000000C9400000C94A6020C9400000C94A2
:1000360000000C9400000C9400000C9400000C943A
:1000460000000C9400000C9400000C940000102793
:10005600E80364000A00010000100001100001001E
:1000660000006400444F4E45205341564521002070
:1000760020202020524541445920544F2020202042
:10008600200020202043414C4942524154494F4EC2
:100096002020005363616E696E672073656E736F0F
:1000A60072005B202564205D5B25695D0053415627
:1000B6004520444154412E2E2E00444F4E452100EA
:1000C60050726F706F7273696F6E616C20202020A2
:1000D60020004B703D253033642000496E746567FF
:1000E600726174696620004B693D253033642000D7
:1000F60044657265766174696620202020004B6431
:100106003D253033642000202020205B5345545485
:10011600494E475D0054696D657220253032642072
:100126003D253033642020202000436F756E7431E6
:10013600202530326420004C6F7374202020004B41
:10014600616E616E2020004B697269202020004C90
:100156006F73743120200053746F70202020004389
:100166006F756E743220253032642000526F7461D0
:10017600746525303264203D2530336420202020EC
:10018600005370656564312025303264203D25308A
:1001960033642020202000537065656432202530AA
:1001A6003264203D25303364202020200043702512
:1001B6003032642054696D653D253033642020203B
:1001C600200043702530326420526561643D25303D
:1001D6003364202020200053656E736F72256420DF
:1001E6002D3E256420202020200043656B20506F83
:1001F600696E745B253032645D202020202020004B
:10020600312E43616C6962726174696F6E20256478
:100216002000322E53706565643D25642020200041
:10022600332E4B65632E42656C6F6B3D2564202033
:100236002000342E00352E5049442000362E5374AB
:10024600726174656769005B362E537472617465FA
:1002560067695D00312E5370656564205374726161
:100266003D256420202000322E5374617274204193
:1002760000332E5374617274204200342E5374611D
:100286007274204300352E53746172742044003713
:100296002E00382E54696D65722020202020200003
:1002A600392E53706565643120436F756E74202056
:1002B6002020200031302E53706565643220436F54
:1002C600756E7420202020200031312E44656C612B
:1002D60079202020202020200031312E506C616EA4
:1002E6002054696D6572202020200031322E417421
:1002F60075722043500031332E5B436F756E746503
:10030600725D204E6F726D616C200031332E4A6132
:100316006C616E20416A610031342E436F756E74D4
:1003260065722032200031342E436F756E7465720B
:100336002031200031352E536D6F6F7468696E67FA
:100346003D25642020200031362E43656B20536501
:100356006E736F720031372E52656D203D25642015
:1003660020200031382E5768697465204C696E6507
:10037600200031382E426C61636B204C696E65201B
:100386000031382E4175746F204C696E652020004F
:1003960054494D45523A256420434F554E543A250B
:1003A6006400253033643C253032643E25303364A6
:1003B60020253033642020200025303364203C255E
:1003C6003032643E202530336420253033642020CB
:1003D60020002E53746172743D41002043503D311C
:1003E600002E53746172743D42002E537461727410
:1003F6003D43002E53746172743D440020205765BE
:100406006C636F6D6520546F00205445554D204335
:100416004F52502E00466F726D61742044617461B4
:100426005B4E5D00626174616C20666F726D617413
:1004360000466F726D617420446174615B595D00A2
:1004460050726F73657320466F726D6174002E2E45
:100456002E2E2E2E2E2E2E2E2E2E2E2E2E2E0046CC
:100466006F726D61742053656C657361692100203C
:1004760053746172743D41002E43503D310080C07B
:1004860001000200660001008D0268000D00600296
:1004960002040C006D020F040200E505840400004E
:1004A600F894EE27ECBBF1E0FBBFEBBFE5BFF8E14C
:1004B600F1BDE1BD8DE0A2E0BB27ED938A95E9F79A
:1004C60080E098E0A0E6ED930197E9F7E6E8F4E02E
:1004D60085919591009761F0A591B591059015903C
:1004E600BF01F00105900D920197E1F7FB01F0CFF6
:1004F600EFE5EDBFE8E0EEBFC0E6D2E00C94D41124
:100506000E94D4170031E0E01E0774F40A930E949B
:10051600D9170E94DD170E94E1170E94E7170E9473
:10052600E1170F5F1F4FEECF0E943D1740C40E9498
:10053600EB17EAE6F0E00E94F2170E94F617C39A5C
:100546000E943D170895AA93EA93FA93EFB7EA93A8
:10055600A0E020FCA1E0A03069F40E94FC17E2575D
:10056600FD4FE081A0912404AE1720F4A091510420
:10057600A13009F011C0A0912504AF5FA093250416
:10058600E0918C02AE1740F0E0912404EF5FE09317
:100596002404E0E0E0932504E991EFBFF991E991A5
:1005A600A99118950E940018309759F00E940018DA
:1005B6000E940518EA0FFB1FE0937B02F0937C0272
:1005C60005C0E0E0E0937B02E0937C020E940A18FB
:1005D6000E940E180E9413186E0F7F1F0E94261885
:1005E600E60FF71F2F010E9400180E94A41ADF01D0
:1005F6000E940A180E9413186E1B7F0B0E94261871
:10060600DB01AE1BBF0B3D010E940018E093810287
:10061600F09382020895E0E2E7B9E881E062E7B983
:1006260085E38A95F1F7369A349BFECF349AE5B185
:1006360021960895AA81BB81A030E1E0BE0724F08F
:10064600EFEFF0E0EA83FB83AA81BB81A130EFEFF5
:10065600BE0724F4E1E0FFEFEA83FB83A881B981BA
:10066600A030E1E0BE0724F0EFEFF0E0E883F98385
:10067600A881B981A130EFEFBE0724F4E1E0FFEFD6
:10068600E883F983EFEFF0E0E615F7050CF43F0198
:10069600E1E0FFEF6E167F060CF43F01EFEFF0E0AE
:1006A600E415F5050CF42F01E1E0FFEF4E165F06A9
:1006B6000CF42F01A981AA233AF4969AE881F981CC
:1006C600E150FF4FFBBDEABDAB81AA233AF4939AF2
:1006D600EA81FB81E150FF4FF9BDE8BDA981AA235C
:1006E6002AF09698E881F981FBBDEABDAB81AA2381
:1006F6002AF09398EA81FB81F9BDE8BD3FC0E1EAA3
:10070600EFBDEBE002C0E0E0EFBDEEBD08950E9454
:10071600321804C0E1E0FFEFFA93EA93FA93EA9302
:1007260089DF08950E9437183A932A931A930A93F9
:1007360081DF22C00E9437181A930A933A932A93AC
:1007460079DF1AC00E94171BC39A0E94FC170E94E9
:1007560044183A932A931A930A930BC00E94171BC4
:10076600C39A0E94FC170E9444181A930A933A935C
:100776002A9360DF0E9458180E941E1B2496089533
:100786000E94151BE1E0F0E0EA15FB0509F4B7DF6E
:100796000E94EB17E5E7F0E00E94F2170E945F184F
:1007A600E8E8F0E00E94F2170E9462180E943D17E6
:1007B60000E010E00730E0E01E07ACF4A5E8B5E085
:1007C600A00FB11FE0E0EC93A7EAB5E0A00FB11FC0
:1007D600EFEFEC93A9E9B5E0A00FB11FE0E0EC93D1
:1007E6000F5F1F4FE7CF00E010E0083EE3E01E0773
:1007F60014F00C946C04E1E0F0E0EA15FB0549F412
:10080600E0E8FFEFFA93EA93E0E8F0E0FA93EA9380
:1008160011DF0A2C0B2809F47ADF0E946818E9E92F
:10082600F0E00E94F2170E945F180E946D18E8EA35
:10083600F0E0FA93EA93E52F0E9472180E94781866
:100846000E947E180E946D180E946D17AF9AAE988E
:1008560020E030E02730E0E03E07BCF4E22FEF5F17
:100866000E94831820F4F901E955FA4F50830E943B
:100876008E1820F4F901E756FA4F508380E293E090
:100886000197F1F72F5F3F4FE5CFAF98AE9A27E07C
:1008960030E02E30E0E03E07BCF4F90136970E94C6
:1008A600831820F4F901E955FA4F50830E948E18F7
:1008B60020F4F901E756FA4F508380E293E001975E
:1008C600F1F72F5F3F4FE5CFAF98AE980F5F1F4F01
:1008D6008CCF20E030E02D30E0E03E071CF5F9013A
:1008E600EB57FA4FBF01A9E9B5E0A20FB31F0C9071
:1008F6001124A7EAB5E0A20FB31F0E949518D001F4
:10090600AE1BBF0BE2E0F0E00E94CD1A0E2EA7EA66
:10091600B5E0A20FB31FEC91E00DDB01EC932F5F66
:100926003F4FD9CF0E94EB170E949818C39AE3EB6A
:10093600F0E00E94F2170E94F61720E030E02D301A
:10094600E0E03E077CF4F901E050F0400F01A5E835
:10095600B5E0A20FB31FEC91D0010E94001B2F5FE0
:100966003F4FEDCFCDDD0E945F18E0ECF0E00E9436
:10097600F2170E94F617C39A0E943D170E941C1B8D
:10098600269608950E94D417989B08C09A9B06C085
:100996009B9B04C09C9B02C0999902C0979801C07A
:1009A600979AC39A999902C001501040EFEFFFEF52
:1009B600E017F10711F402E010E0989902C00F5F0A
:1009C6001F4FE3E0F0E0E017F10711F400E010E05C
:1009D600002E012A71F50E946818E6ECF0E00E94EC
:1009E600F2170E946D18E8EDF0E0FA93EA93E091B1
:1009F60089020E9472180E949C180E946D180E941B
:100A06006D179A990DC0E0918902EF5FE093890214
:100A1600A0918902EFEFEA1718F4E0E0E09389026B
:100A26009B9907C00E940A183197E0938902A0910A
:100A360089020E94A11879F50E946818E1EEF0E09B
:100A46000E94F2170E946D18EDEEF0E0FA93EA9319
:100A5600E0918B020E9472180E949C180E946D18E9
:100A66000E946D179A990DC0E0918B02EF5FE0939B
:100A76008B02A0918B02EFEFEA1718F4E0E0E09307
:100A86008B029B9908C0E0918B020E94A618E09306
:100A96008B02A0918B020E94A91879F50E94681812
:100AA600E6EFF0E00E94F2170E946D18E4E0F1E034
:100AB600FA93EA93E0918A020E9472180E949C18A7
:100AC6000E946D180E946D179A990DC0E0918A02D6
:100AD600EF5FE0938A02A0918A02EFEFEA1718F41B
:100AE600E0E0E0938A029B9908C0E0918A020E94A6
:100AF600A618E0938A02A0918A029C992CC0AAE9C2
:100B0600B2E00E94F41AA0918902EA1731F0E0914E
:100B16008902AAE9B2E00E94001BACE9B2E00E9499
:100B2600F41AA0918B02EA1731F0E0918B02ACE93E
:100B3600B2E00E94001BABE9B2E00E94F41AA09159
:100B46008A02EA1731F0E0918A02ABE9B2E00E942C
:100B5600001BEDDC05C0E4E6F0E00E94AE1814CF01
:100B660026C10E94D417989B08C09A9B06C09B9BDF
:100B760004C09C9B02C0999902C0979801C0979A9D
:100B86000E94B2180E9468180E946D18EBE1F1E00D
:100B96000E94B618AEE8B2E00E94B9180E947E180C
:100BA6000E945F180E946D180E946D17989907C0E1
:100BB6000E94BD1814F400E010E00E943D179999B8
:100BC60008C00E94C71819F400918D0211270E94CF
:100BD6003D179A9904C00E94CE180E94D7189B9977
:100BE60007C00E94CE180E9495183197D001EC9349
:100BF6009C9915C00E94DC180E94E21870F00E94B1
:100C0600E818A852BF4F0E94EC18E257FD4FE0814A
:100C16000E94001B0E94F018EFCF89DC03C00E94DF
:100C2600F618A1CFC4C00E94F918989B08C09A9BD9
:100C360006C09B9B04C09C9B02C0999902C09798D2
:100C460001C0979A0E94B2180E9468180E946D18F7
:100C5600E2E7F1E00E94B618AEE1B5E00E94B918ED
:100C66000E947E180E945F180E946D180E946D17E0
:100C7600989907C00E94BD1814F401E010E00E9484
:100C86003D17999909C0F80131978F0119F4009120
:100C96008D0211270E943D179A9904C00E94FE18E2
:100CA6000E9407199B9907C00E94FE180E9495187A
:100CB6003597D001EC939C9915C00E94DC180E94D0
:100CC600E21870F00E94E818AF5CBD4F0E94EC1865
:100CD600E25EFA4FE0810E94001B0E94F018EFCFFF
:100CE60026DC03C00E94F618A0CF61C00E94D4176C
:100CF600989B08C09A9B06C09B9B04C09C9B02C005
:100D0600999902C0979801C0979A0E94B2180E94BA
:100D160068180E946D18E7E8F1E00E94B618A3EF84
:100D2600B2E00E94B9180E947E180E945F180E94C5
:100D36006D180E946D17989907C00E94BD1814F48B
:100D460000E010E00E943D17999908C00E94C7185C
:100D560019F400918D0211270E943D179A9904C03B
:100D66000E940C190E9407199B9907C00E940C1932
:100D76000E9495183597D001EC939C9915C00E9456
:100D8600DC180E94E21870F00E94E818A25FBF4FBC
:100D96000E94EC18ED50FD4FE0810E94001B0E945E
:100DA600F018EFCFC4DB03C00E94F618A1CF09915B
:100DB600199108950E94D417989B08C09A9B06C063
:100DC6009B9B04C09C9B02C0999902C0979801C046
:100DD600979A0E94B2180E9468180E946D18EDE951
:100DE600F1E00E94B618A8E5B3E00E94B9180E9487
:100DF6007E180E945F180E946D180E946D179899C0
:100E060007C00E94BD1814F400E010E00E943D17D0
:100E1600999908C00E94C71819F400918D021127EC
:100E26000E943D179A9904C00E9415190E9407193D
:100E36009B9907C00E9415190E9495183597D001F5
:100E4600EC939C9915C00E94DC180E94E21870F081
:100E56000E94E818AD58BF4F0E94EC18E85AFC4FA4
:100E6600E0810E94001B0E94F018EFCF60DB03C0F8
:100E76000E94F618A1CFAAC40E94F918989B08C030
:100E86009A9B06C09B9B04C09C9B02C0999902C07A
:100E9600979801C0979A0E94B2180E9468180E94FB
:100EA6006D18E3EBF1E00E94B618A6E2B4E00E94EA
:100EB600B9180E947E180E945F180E946D180E9441
:100EC6006D17989909C0F80131968F01759714F03E
:100ED60001E010E00E943D17999908C0F80131978A
:100EE6008F0111F404E110E00E943D179A9904C0A5
:100EF6000E941E190E94D7189B9907C00E941E19AE
:100F06000E9495183197D001EC939C9916C00E94C7
:100F1600DC18A091BD03A53170F40E94E818A35C0B
:100F2600BE4F0E94EC18EA5DFB4FE0810E94001B59
:100F36000E94F018EECFFBDA03C00E94F6189ECF8F
:100F460045C40E94F918989B08C09A9B06C09B9BB3
:100F560004C09C9B02C0999902C0979801C0979AB9
:100F66000E94B2180E9468180E946D18E8ECF1E021
:100F76000E94B618ABE3B4E00E94B9180E947E182E
:100F86000E945F180E946D180E946D17989909C0FB
:100F9600F80131968F01759714F001E010E00E9478
:100FA6003D17999908C0F80131978F0111F404E1B2
:100FB60010E00E943D179A9904C00E9427190E94CA
:100FC600D7189B9907C00E9427190E949518319738
:100FD600D001EC939C9916C00E94DC18A091BD0329
:100FE600A53170F40E94E818AE5ABE4F0E94EC1864
:100FF600E55CFB4FE0810E94001B0E94F018EECFDB
:1010060096DA03C00E94F6189ECFE0C30E94D4175A
:10101600989B08C09A9B06C09B9B04C09C9B02C0E1
:10102600999902C0979801C0979A0E94B2180E9497
:1010360068180E946D18EDEDF1E00E94B618E09177
:1010460093050E9472180E947E180E945F180E94E3
:101056006D180E946D170E30E0E01E0714F000E0D8
:1010660010E0112312F40DE010E09A9902C00F5F10
:101076001F4F9B9902C0015010400730E0E01E0749
:101086002CF4AF9AAE980A930E9430190730E0E02C
:101096001E073CF0AF98AE9AF8013797EA930E9484
:1010A60030199C9903C00E943D1703C00E94F61890
:1010B600AFCF8CC30E94D417989B08C09A9B06C0DA
:1010C6009B9B04C09C9B02C0999902C0979801C043
:1010D600979A0E94B2180E9468180E946D18E0EF55
:1010E600F1E00E94B6180E949C180E946D180E949A
:1010F6006D179A9907C00E94BD1814F400E010E01D
:101106000E94F6189B990EC0F80131978F01DF01F6
:10111600EFEFFFEFEA17FB071CF000918D02112796
:101126000E94F6189C9B02C09D991CC00E943D1708
:101136000024001601069CF4ABE3B4E0A00FB11F37
:10114600EC91E093BE030E94FC17E257FD4F0F019E
:10115600A6E2B4E0A00FB11FEC91D001EC930E947F
:101166003D1701C0A9CF32C30E94D417C39A989BDA
:1011760008C09A9B06C09B9B04C09C9B02C0999981
:1011860002C0979801C0979A999904C001501040DF
:101196000E943D17EFEFFFEFE017F10711F402E1B0
:1011A60010E0989904C00F5F1F4F0E943D17E3E1BE
:1011B600F0E0E017F10711F400E010E00E94A1183A
:1011C600E9F40E9435190E946D18E6E0F2E0FA9300
:1011D600EA93F5010E943E190E946D180E946D1750
:1011E6009A9BCEDA9B990AC0F50131965F01E2E03F
:1011F600F0E0EA15FB0511F4AA24BB240E94A91805
:1012060039F50E9435190E946D18E8E1F2E0FA936B
:10121600EA93F4010E943E190E946D180E946D1710
:101226009A990AC0F40135964F01EFEFF0E0E81500
:10123600F90514F4882499249B990AC0F40135977A
:101246004F010024801490041CF4EFEFF0E04F01EE
:10125600E3E0F0E0E017F10739F50E9435190E9446
:101266006D18E6E2F2E0FA93EA93F6010E943E195F
:101276000E946D180E946D179A990AC0F60135965C
:101286006F01EFEFF0E0EC15FD0514F4CC24DD243E
:101296009B990AC0F60135976F010024C014D0044B
:1012A6001CF4EFEFF0E06F01E4E0F0E0E017F10787
:1012B60091F40E9435190E946D18E8E3F2E0FA9362
:1012C600EA9380E00E94C41624960E945F180E944A
:1012D6006D180E946D17E5E0F0E0E017F10751F494
:1012E6000E9435190E945F18EBE3F2E00E94F217A4
:1012F6009A9B48DBE6E0F0E0E017F10711F00C946A
:10130600280A0E943D170E9435190E945F18E2E4E0
:10131600F2E00E94F2179A9998C02297E0E0E883DB
:10132600E9830E943D17989906C00E944319EAEF87
:10133600F0E00E94AE1899990BC0E881F9813197C7
:10134600E883F9830E943D17EAEFF0E00E94AE18A9
:10135600A881B981AF3FEFEFBE0721F4E4E0F0E0EA
:10136600E883F983A881B981159719F4E0E0E88349
:10137600E983E881F9813097A9F50E944A190E940C
:101386006D18EAE5F2E0FA93EA930E9453190E9477
:101396003E190E946D180E946D179A9912C00E94FC
:1013A600531935960E945819A0917902B0917A0284
:1013B600A030E1E0BE072CF0E0E0E0937902E09394
:1013C6007A029B990FC00E94531935970E945819AB
:1013D600A0917A02AA2332F4EFEFF0E0E0937902CB
:1013E600F0937A02A881B981119741F40E944A19B3
:1013F6000E945F18EDE6F2E00E94F217A881B9811B
:10140600129741F40E944A190E945F18E7E7F2E03A
:101416000E94F217A881B981139741F40E944A19D4
:101426000E945F18E1E8F2E00E94F217A881B981F4
:10143600149741F40E944A190E945F18EBE8F2E003
:101446000E94F2179D9B5DCF6ECFE7E0F0E0E017BC
:10145600F10731F40E945F18E5E9F2E00E94F21705
:10146600E8E0F0E0E017F10741F40E945F18E8E9D0
:10147600F2E00E94F2179A9B74DBE9E0F0E0E017D5
:10148600F10741F40E945F18E6EAF2E00E94F217C3
:101496009A9B2CDCEAE0F0E0E017F10741F40E94A9
:1014A6005F18EAEBF2E00E94F2179A9B83DCEBE00E
:1014B600F0E0E017F10741F40E945F18EFECF2E06C
:1014C6000E94F2179A9BAFDBECE0F0E0E017F10721
:1014D60041F40E945F18EFEDF2E00E94F2179A9B2A
:1014E600CBDCEDE0F0E0E017F10741F40E945F1875
:1014F600E1EFF2E00E94F2179A9B23DDEEE0F0E0C6
:10150600E017F107E1F40E945F18A0915104A130A1
:1015160021F4ECEFF2E00E94F217E0915104E03082
:1015260021F4E1E1F3E00E94F2179A9903C0E0E0AA
:10153600E09351049B9903C0E1E0E0935104EFE08E
:10154600F0E0E017F107E1F40E945F18A09184052E
:10155600A13021F4EEE1F3E00E94F217E091840558
:10156600E03021F4ECE2F3E00E94F2179A9903C00E
:10157600E1E0E09384059B9903C0E0E0E0938405F5
:10158600E0E1F0E0E017F10749F50E946D18EAE3A3
:10159600F3E0FA93EA93E0918C020E9472180E949B
:1015A6009C180E946D180E946D179A990DC0E091C3
:1015B6008C02EF5FE0938C02A0918C02EFEFEA17AA
:1015C60018F4E0E0E0938C029B9908C0E0918C024D
:1015D6000E94A618E0938C02A0918C02E1E1F0E053
:1015E600E017F10741F40E945F18EDE4F3E00E9472
:1015F600F2179A9B0BDDE2E1F0E0E017F10779F5CF
:101606000E946D18EBE5F3E0FA93EA930E945D19E8
:101616000E943E190E946D180E946D179A9910C07B
:101626000E945D1935960E9462190E946719A030C2
:10163600E1E0BE072CF0E0E0E0938502E09386024D
:101646009B990DC00E945D1935970E946219A09161
:101656008602AA2322F4EFEFF0E00E946219002E20
:10166600012AC9F50E945F180E946C19129721F48D
:10167600E9E6F3E00E94F2170E946C19119721F433
:10168600E8E7F3E00E94F2170E947119309721F4FF
:10169600E7E8F3E00E94F2179A990EC00E947119CA
:1016A60031960E9476190E946C1913972CF0E0E08F
:1016B600E0938302E09384029B990DC00E94711906
:1016C60031970E947619A0918402AA2322F4E2E0BF
:1016D600F0E00E9476199C9976C0A9E9B2E00E94D2
:1016E600F41AA0918C02EA1731F0E0918C02A9E974
:1016F600B2E00E94001BA7E9B2E00E94F41AA09192
:101706005104EA1731F0E0915104A7E9B2E00E94D2
:10171600001BA8E9B2E00E94F41AA0918405EA171A
:1017260031F0E0918405A8E9B2E00E94001BADE922
:10173600B2E00E94F41AD6010E947B1929F0EC2D22
:10174600ADE9B2E00E94001BAEE9B2E00E94F41AD5
:101756000E9467190E947B1931F0E0918502AEE97B
:10176600B2E00E94001BAFE9B2E00E94F41AA09119
:101776007902B0917A020E947B1931F0E0917902E8
:10178600AFE9B2E00E94001BA0EAB2E00E94F41AA0
:10179600D4010E947B1929F0E82DA0EAB2E00E944C
:1017A600001BA6E9B2E00E94F41A0E946C190E947E
:1017B6007B1931F0E0918302A6E9B2E00E94001B9A
:1017C6000E949A0203C00E94F618D0CC0991199182
:1017D60008950E947F19A081E0919305AE1748F401
:1017E600E0E0E093BC05E093BD05E093BE05E09321
:1017F600BF05E0E0E093B805E093B905E0939505F1
:10180600E0939705E0939405A0919405A73010F016
:101816000C94BA0CE0919405EF5FEA930E9430199C
:10182600AF9AAE98E0919405E03099F4E8E00E9412
:1018360085190E948B1958F40E949019E05CFF4F9D
:101846000E949519E8E0F0E00E949A1902C00E94F1
:10185600DD17A0919405A13099F4E6E00E94851960
:101866000E948B1958F40E949019E058FF4F0E946D
:101876009519E6E0F0E00E949A1902C00E94DD1771
:10188600A0919405A23099F4E5E00E9485190E9482
:101896008B1958F40E949019E050FF4F0E94951939
:1018A600E5E0F0E00E949A1902C00E94DD17A091BF
:1018B6009405A33099F4E4E00E9485190E948B19DF
:1018C60058F40E949019E050FE4F0E949519E4E0EA
:1018D600F0E00E949A1902C00E94DD17A0919405BB
:1018E600A43099F4E3E00E9485190E948B1958F4FC
:1018F6000E949019E050FC4F0E949519E3E0F0E039
:101906000E949A1902C00E94DD17A0919405A53085
:1019160099F4E2E00E9485190E948B1958F40E94FE
:101926009019E851F84F0E949519E2E0F0E00E9404
:101936009A1902C00E94DD17A0919405A630A1F461
:10194600E1E00E9485190E948B1960F4E0919505EB
:10195600EE5FE09395050E94E717E1E0F0E00E9454
:101966009A1902C00E94DD170E949F194DCFE7E029
:10197600E0939405A0919405AE3010F00C946B0D95
:10198600E0919405F0E03697EA930E943019AF98FB
:10199600AE9AA0919405A73091F4E7E00E948519CC
:1019A6000E948B1950F40E949019B0960E949519C6
:1019B600E7E0F0E00E949A1902C00E94DD17A091AC
:1019C6009405A83091F4E9E00E9485190E948B19CC
:1019D60050F40E94901970960E949519E9E0F0E083
:1019E6000E949A1902C00E94DD17A0919405A930A1
:1019F60091F4EAE00E9485190E948B1950F40E9426
:101A0600901938960E949519EAE0F0E00E949A191A
:101A160002C00E94DD17A0919405AA3091F4EBE074
:101A26000E9485190E948B1950F40E9490193496D1
:101A36000E949519EBE0F0E00E949A1902C00E94FC
:101A4600DD17A0919405AB3091F4ECE00E94851966
:101A56000E948B1950F40E94901932960E94951993
:101A6600ECE0F0E00E949A1902C00E94DD17A091F6
:101A76009405AC3091F4EDE00E9485190E948B1913
:101A860050F40E94901931960E949519EDE0F0E00D
:101A96000E949A1902C00E94DD17A0919405AD30EC
:101AA600A1F4EEE00E9485190E948B1960F4E09182
:101AB6009505EF5FE09395050E94E717EEE0F0E0ED
:101AC6000E949A1902C00E94DD170E949F1952CFE8
:101AD6000E9490190E94A519E0939605E09197053A
:101AE600E093980508950E9486030E943D17C39AC5
:101AF600E89420F8919A0E94FC17E154FC4FA091BB
:101B06002404A0830E945F180E946D18E6E9F3E0A2
:101B1600FA93EA930E94FC17E154FC4FE0810E947D
:101B26007218E091BE030E9472180E947E180E94ED
:101B36006D180E946D17E1E0F0E00E94AE180E9459
:101B46003218FA93EA930E941D030E94FC170E9422
:101B5600AC1968F20E94820391982EC00E943D172C
:101B6600C39A0E945F180E946D18E8EAF3E0FA93A0
:101B7600EA93F4010E94B619E091BE030E9472181E
:101B8600F4010E94B619E09183050E9472180E9422
:101B9600BB190E946D170E94FC17E25EFA4FE081A6
:101BA600E09383059A928A929A928A920E941D03E2
:101BB6000E945818E89420F80E943D1708950E9444
:101BC60067190E94111B34F40E948D030E945D194F
:101BD6000E94AE180895809902C0919A01C091980A
:101BE600C3980E94FC17E154FC4FA0912404A083E3
:101BF6000E94FC170E94AC1920F4A0915104A13058
:101C060009F007C097980E94FC17ED50FD4F8080A1
:101C160099240E94FC170E94AC1920F0A09151044F
:101C2600A13009F007C0979A0E94FC17E85AFC4FAA
:101C3600808099240E940E18A53FEFEFBE0724F07E
:101C46000E940E181C970CF003C0E0E0E0931D05FF
:101C56000E940E18D59724F40E940E1854970CF47F
:101C660002C0E89421F80E940E18ECECFFEFEA1788
:101C7600FB073CF00E940E18ECEEFFEFEA17FB079D
:101C86000CF402C0E89421F8A4DD0E946C191197A7
:101C960009F4C3980E946C19129721F40E94C01986
:101CA6000E94C919A091B705A13021F40E946C19B0
:101CB600109709F005C00E94C0190E94C91906C0F4
:101CC600E0E0E093B705E093B605C3980E94D41907
:101CD600EE3FAFE0FA0721F0EC3FAFE0FA0709F478
:101CE60004C0ED3FAFE0FA0709F404C0E93FAFE0F6
:101CF600FA0709F404C0EB3FAFE0FA0709F404C0A1
:101D0600E33FAFE0FA0709F404C0E73FAFE0FA07A4
:101D160009F404C0E73EAFE0FA0709F404C0EF3E59
:101D2600AFE0FA0709F404C0EF3CAFE0FA0709F4A4
:101D360004C0EF3DAFE0FA0709F404C0EF39AFE0A5
:101D4600FA0709F404C0EF3BAFE0FA0709F404C050
:101D5600EF33AFE0FA0709F404C0EF37AFE0FA0754
:101D660009F404C0EF37AEE0FA0709F404C0EF3F08
:101D7600AEE0FA0709F404C0EF3FACE0FA0709F455
:101D860004C0EF3FADE0FA0709F404C0EF3FA9E055
:101D9600FA0709F404C0EF3FABE0FA0709F404C000
:101DA600EF3FA3E0FA0709F404C0EF3FA7E0FA0704
:101DB60099F4A091B605A03021F40E946C191097F1
:101DC60009F006C0E091B705EF5FE093B70503C0E1
:101DD600E0E0E093B605BDC1E130A0E0FA0729F4E2
:101DE600E1EEFFEF0E94D919B4C1E330A0E0FA0793
:101DF60029F4E5EEFFEF0E94D919ABC1E230A0E06D
:101E0600FA0729F4E7EEFFEF0E94D919A2C1E630DE
:101E1600A0E0FA0729F4EBEEFFEF0E94D91999C169
:101E2600E430A0E0FA0729F4EFEEFFEF0E94D9199B
:101E360090C1EC30A0E0FA0729F4E1EFFFEF0E9431
:101E4600D91987C1E830A0E0FA0729F4E5EFFFEFDA
:101E56000E94D9197EC1E831A0E0FA0729F4E9EF1A
:101E6600FFEF0E94D91975C1E031A0E0FA0729F405
:101E7600EBEFFFEF0E94D9196CC1E035A0E0FA073D
:101E860029F4EDEFFFEF0E94D91963C1E034A0E019
:101E9600FA0729F4EFEFFFEF0E94D9195AC1E0368D
:101EA600A0E0FA0719F40E94DE1953C1E032A0E05F
:101EB600FA0729F4E1E0F0E00E94D9194AC1E03AB4
:101EC600A0E0FA0729F4E3E0F0E00E94D91941C145
:101ED600E038A0E0FA0729F4E5E0F0E00E94D9191D
:101EE60038C1E038A1E0FA0729F4E7E0F0E00E9403
:101EF600D9192FC1E030A1E0FA0729F4EBE0F0E0B0
:101F06000E94D91926C1E030A3E0FA0729F4EFE0D0
:101F1600F0E00E94D9191DC1E030A2E0FA0729F4C9
:101F2600E1E1F0E00E94D91914C1E030A6E0FA0719
:101F360029F4E5E1F0E00E94D9190BC1E030A4E0F4
:101F4600FA0729F4E9E1F0E00E94D91902C1E0306C
:101F5600ACE0FA0729F4EBE1F0E00E94D919F9C0E8
:101F6600E030A8E0FA0729F4EFE1F0E00E94D91981
:101F7600F0C0E730A0E0FA0729F4EBEEFFEF0E948D
:101F8600D919E7C0EF30A0E0FA0729F4EFEEFFEF2A
:101F96000E94D919DEC0EE30A0E0FA0729F4E1EF7D
:101FA600FFEF0E94D919D5C0EE31A0E0FA0729F457
:101FB600E5EFFFEF0E94D919CCC0EC31A0E0FA079B
:101FC60029F4E9EFFFEF0E94D919C3C0EC35A0E070
:101FD600FA0729F4EBEFFFEF0E94D919BAC0E835EA
:101FE600A0E0FA0729F4EDEFFFEF0E94D919B1C07E
:101FF600E037A0E0FA0721F0EF36AEE0FA0709F481
:1020060004C0E73EAEE0FA0709F404C0EF3FAFE0D4
:10201600FA0709F404C0EE3FA7E0FA0709F404C082
:10202600EC3FA3E0FA0709F404C0E83FA1E0FA0791
:1020360009F404C0E03EA0E0FA0709F404C0E03F5A
:10204600A0E0FA0719F40E94DE1983C0E03AA1E085
:10205600FA0729F4E3E0F0E00E94D9197AC0E03AE1
:10206600A3E0FA0729F4E5E0F0E00E94D91971C06F
:10207600E038A3E0FA0729F4E7E0F0E00E94D91976
:1020860068C0E038A7E0FA0729F4EBE0F0E00E9428
:10209600D9195FC0E030A7E0FA0729F4EFE0F0E0D5
:1020A6000E94D91956C0E030AFE0FA0729F4E1E101
:1020B600F0E00E94D9194DC0E030AEE0FA0729F4ED
:1020C600E5E1F0E00E94D91944C0309711F00C9474
:1020D600AC10E091B505E030E1F5A0919605A13090
:1020E60041F40E94D419309721F421FE68DD0E9444
:1020F600E4190E94EF19119721F421FE60DD0E9478
:10210600E4190E94EF19129721F421FE58DD0E946E
:10211600E419A0919605A23041F40E94D419309793
:1021260021F421FE4CDD0E94F4190E94EF19A03023
:10213600E4E0BE0721F421FE42DD0E94F4190E946C
:10214600EF19A030E8E0BE0721F421FE38DD0E9439
:10215600F419A0919805A03029F4E0E0E0938702F5
:10216600E0938802A0919805A03041F40E94FC17E4
:10217600ED5AFB4FA081A53009F066C0A0911D0560
:10218600A03021F4A0915104A13009F05DC00E9455
:10219600FC170E94AC1910F40C942411689420F8D2
:1021A600E0E0E0932404A091C005B091C1050E942F
:1021B600111B2CF4E091BE03EF5FE093BE030E9477
:1021C600FC17EE5AFB4FE081E0931C05A0911C051D
:1021D600A13041F0A23031F0A33021F0A43011F04B
:1021E600A530C9F40E9467190E94111BA4F4A0919E
:1021F6008702B0918802129724F4A7E8B2E00E9401
:10220600FF19A0918702B0918802119721F4C39813
:10221600D6DCE89420F8A0911C05A23011F40E94A7
:10222600A503A0911C05A33011F40E94B103A0914F
:102236001C05A43009F492DCA0911C05A53009F414
:1022460052DCE1E0E0931D050E94D502082C092826
:1022560029F40E943218FA93EA9304C07A926A9299
:102266005A924A920E941D030E940E18A53FEFEF54
:10227600BE0724F00E940E181C970CF006C0E0E082
:10228600E093B505E89420F81CC00E940E18D39779
:1022960034F40E940E18AE3CEFEFBE0794F4E1E072
:1022A600E093B5050E940E18D49719F40E94950381
:1022B60008C00E940E18AC3CEFEFBE0711F40E9456
:1022C6009D030E945F180E946D18EFEBF3E0FA93EE
:1022D600EA93F3010E94B6190E9400180E94B619EB
:1022E600F2010E94B619E09124040E9472180E941D
:1022F600BB190E946D1708959D990BC0E091E305E7
:10230600F091E4053196E093E305F093E4050E942D
:10231600051AE4E0F0E0E093E305F093E405309776
:1023260029F0E0E0E093E305E093E405E091E305BE
:10233600F091E405309751F40E945F18E8EDF3E060
:102346000E94F2170E94081A0E940B1A0E940E1A87
:10235600119751F40E945F18E7EEF3E00E94F2171E
:102366000E94081A0E940B1A0E940E1A129751F424
:102376000E945F18E0EFF3E00E94F2170E94081A2D
:102386000E940B1A0E940E1A139751F40E945F18AE
:10239600E9EFF3E00E94F2170E94081A0E940B1A56
:1023A600ABCF00E010E0EFEFEBBBE0E0EABBE8BB51
:1023B600E8E0E7BBEFE3E5BBE0ECE4BBE1E8E2BB6A
:1023C600EEEFE1BBE5E0E3BFE1E0E9BFE4E8E6B953
:1023D600E0E1EA930E948B17E2E0EA93E0E0EA93F9
:1023E6000E942C17E0E6F2E0FA93EA930E946D173A
:1023F6000E94051AE3E0EA930E94D917EDE6F2E09F
:10240600FA93EA930E946D170E949818E8EEF3E09B
:102416000E94AE189B991AC12297E0E0E883E983EF
:10242600C39A0E943D170E9462189B9904C00E949D
:1024360043190E94051AA881B981129719F4E0E0A0
:10244600E883E983E881F981309789F40E94681866
:10245600EBE1F4E00E94F2179A9909C00E9468180D
:10246600EAE2F4E00E94F2170E9462180CC2A88108
:10247600B981119711F00C9428130E946818E7E3AC
:10248600F4E00E94F2179A99E0C00E946818E6E408
:10249600F4E00E94F2170E945F18E4E5F4E00E945F
:1024A600F217E1E0E093BD030E94E21850F00E94AB
:1024B600E818A959BE4FE1E00E94001B0E94F018DF
:1024C600F3CFE1E0E093BD030E94E21850F00E94D2
:1024D600E818A453BE4FE1E00E94001B0E94F018CA
:1024E600F3CFE1E0E093BD030E94E21850F00E94B2
:1024F600E818AF5CBD4FEFEF0E94001B0E94F0187A
:10250600F3CFE0E0E093BD03A091BD03A53150F405
:102516000E94E818AE5ABE4FE0E00E94001B0E94DF
:10252600F018F2CFE0E0E093BD03A091BD03A53122
:1025360050F40E94E818A35CBE4FE0E00E94001B26
:102546000E94F018F2CFE0E0E093BD030E94E2188B
:1025560050F00E94E818A25FBF4FE4E60E94001BFD
:102566000E94F018F3CFE0E0E093BD030E94E2186A
:1025760050F00E94E818AD58BF4FE0E50E94001BDE
:102586000E94F018F3CFE0E0E093BD030E94E2184A
:1025960050F00E94E818A852BF4FE1E00E94001BCD
:1025A6000E94F018F3CFE0E0E0939405A091940523
:1025B600A03140F40E94131AE4E60E94001B0E9418
:1025C6009F19F4CFC39AA6E9B2E0E0E00E94001B8F
:1025D600A7E9B2E00E94001BA8E9B2E00E94001B36
:1025E600A9E9B2E0E5E00E94001BAAE9B2E0EAE050
:1025F6000E94001BABE9B2E0E4E60E94001BACE9D6
:10260600B2E0E0E00E94001BADE9B2E0E8E70E941C
:10261600001BAEE9B2E0E0E00E94001BAFE9B2E0C9
:10262600E8E70E94001BA0EAB2E0E4E60E94001B75
:102636000E9483020E946818E5E6F4E00E94F21701
:10264600E8EEF3E00E94AE181EC1EFCE0E948A03A8
:10265600C39AE1E0E093BD030E94E21860F00E9495
:10266600EC18EE5AFB4F0F010E94E8180E94191A47
:102676000E94F018F1CFE1E0E093BD030E94E2185A
:1026860060F00E94EC18E954FB4F0F010E94E81815
:102696000E94201A0E94F018F1CFE1E0E093BD03FA
:1026A6000E94E21860F00E94EC18E25EFA4F0F01F9
:1026B6000E94E8180E94271A0E94F018F1CFE0E065
:1026C600E093BD03A091BD03A53160F40E94EC1810
:1026D600E55CFB4F0F010E94E8180E942E1A0E942B
:1026E600F018F0CFE0E0E093BD03A091BD03A53163
:1026F60060F40E94EC18EA5DFB4F0F010E94E81897
:102706000E94351A0E94F018F0CFE0E0E093BD0376
:102716000E94E21860F00E94EC18ED50FD4F0F0188
:102726000E94E8180E943C1A0E94F018F1CFE0E0DF
:10273600E093BD030E94E21860F00E94EC18E85A8C
:10274600FC4F0F010E94E8180E94431A0E94F018DD
:10275600F1CFE0E0E093BD030E94E21860F00E9432
:10276600EC18E257FD4F0F010E94E8180E944A1A22
:102776000E94F018F1CFE0E0E093BD030E94E2185A
:1027860048F00E94EC18E154FC4FA0E0A0830E94A0
:10279600F018F4CFE0E0E0939405A0919405A03101
:1027A60060F40E947F190F010E94131A0E94F41A06
:1027B600D001EC930E949F19F0CFA7E9B2E00E94E6
:1027C600F41AE0935104A8E9B2E00E94F41AE093E7
:1027D6008405A6E9B2E00E94511A0E947619A9E979
:1027E600B2E00E94F41AE0938C02E0E0E093BE03AC
:1027F600689420F8E0932404ADE9B2E00E94F41A4C
:10280600CE2EDD24AEE9B2E00E94511A0E94621972
:10281600AFE9B2E00E94511AE0937902F0937A028E
:10282600A0EAB2E00E94F41A8E2E9924AAE9B2E038
:102836000E94F41AE0938902ACE9B2E00E94F41A0D
:10284600E0938B02ABE9B2E00E94F41AE0938A02AD
:10285600E0E0E0935004E0937D02E0937E02E09393
:102866008102E09382020E94DE19979A989B01C02A
:102876000AC00E943D17AF98AE98689420F80E944F
:10288600B708979A39DD0E943D17C39A0E94EC0B50
:102896009B9904C00F5F1F4F0E94051A0E94A9183A
:1028A60011F400E010E0002E012A59F40E945F188E
:1028B600E8EDF3E00E94F2170E94081A0E940B1A34
:1028C600E1CF0E94A11861F40E945F18E5E7F4E0E9
:1028D6000E94F2170E94081AEEE7F4E00E94F2172F
:1028E600989BB4CED2CF0E94E21860F00E94EC18FA
:1028F600EE5AFB4F0F010E94E8180E94191A0E9417
:10290600F018F1CFE1E0E093BD030E94E21860F019
:102916000E94EC18E954FB4F0F010E94E8180E9430
:10292600201A0E94F018F1CFE1E0E093BD030E9467
:10293600E21860F00E94EC18E25EFA4F0F010E9466
:10294600E8180E94271A0E94F018F1CFE0E0E09301
:10295600BD03A091BD03A53160F40E94EC18E55CAF
:10296600FB4F0F010E94E8180E942E1A0E94F018D1
:10297600F0CFE0E0E093BD03A091BD03A53160F484
:102986000E94EC18EA5DFB4F0F010E94E8180E94B6
:10299600351A0E94F018F0CFE0E0E093BD030E94E4
:1029A600E21860F00E94EC18ED50FD4F0F010E94F6
:1029B600E8180E943C1A0E94F018F1CFE0E0E0937C
:1029C600BD030E94E21860F00E94EC18E85AFC4F22
:1029D6000F010E94E8180E94431A0E94F018F1CFD6
:1029E600E0E0E093BD030E94E21860F00E94EC185C
:1029F600E257FD4F0F010E94E8180E944A1A0E94F2
:102A0600F018F1CFE0E0E093BD030E94E21848F031
:102A16000E94EC18E154FC4FA0E0A0830E94F0183D
:102A2600F4CFE0E0E0939405A0919405A03160F422
:102A36000E947F190F010E94131A0E94F41AD001F6
:102A4600EC930E949F19F0CFA0918405A130B1F4B8
:102A5600E0E0E093BD03E0918D02A091BD03AE17C7
:102A660068F40E94E818AE5ABB4F0E94EC18E9546D
:102A7600FB4FE081EC930E94F018EDCFA09151043A
:102A8600A13011F40E945D08C3980E9482036894E5
:102A960020F87894A0D80E94EC0B989903C00E9465
:102AA6009818F1CEF7CFFFCF1A930A93AA81BB816C
:102AB60012960E94E01A309729F1AA81BB811496DA
:102AC6000E94E01A8F01309761F00230E0E01E07A5
:102AD600C0F0F80131978F01AA81BB811496ED935E
:102AE600FC93AA81BB8112960E94FF193197AC8193
:102AF600A083AA81BB810E94E01AFF2312F00E94E4
:102B0600FF1906C0AA81BB81EFEFFFEFED93FC939F
:102B1600198108812596089526970E94151B10E0B5
:102B2600AC85BD85E0E0F0E0ED93FC93EA89FB8996
:102B36003196EA8BFB8B3197E4912E2FE03011F41E
:102B46000C94BC16E12FE03039F4253211F411E073
:102B560002C00E94551A0CC1E130A9F4253219F4BD
:102B66000E94551A04C112E040E000E02D3211F433
:102B760001E0FEC02B3211F44BE2FAC0203211F410
:102B860040E2F6C002C0E23039F450E013E02033F0
:102B960011F40068EDC004C0E33011F00C94BB16CC
:102BA600203310F02A3308F007C0AAE05A9F502DB0
:102BB600E22FE0535E0FDCC0E22FE33649F40E94B9
:102BC6005E1AE889F989A481AA930E94641ACFC083
:102BD600E33741F40E945E1A0E946C1A0E94BF17E6
:102BE6001E2F0AC0E03761F40E945E1A0E946C1A1A
:102BF6000E94C9171E2F086002600F7730E035C0AB
:102C0600E43611F0E93611F4046002C0E53731F418
:102C1600E4E5F0E0EE83FF8315E00DC0E83511F43E
:102C2600086004C0E83711F00C94BA16EEE5F0E03F
:102C3600EE83FF8314E002FF14C00E945E1A0E9416
:102C4600761AAB85AA233AF4EA85FB850E94A41A74
:102C5600EA87FB874DE2403011F01F5F01C00B7F12
:102C660004C00E945E1A0E94761A00FD11C0151754
:102C760078F407FF08C002FF04C00B7F242F115011
:102C860001C020E301C020E20E94551A5150EFCF47
:102C9600312F01FF17C03030A1F003FF06C0EE81CF
:102CA600FF812591EE83FF8305C0AE81BF812D9103
:102CB600AE83BF830E94551A503009F051503150EF
:102CC600EACF4BC020E3EE81FF810E94E41AE88739
:102CD600F987EE81FF813296EE83FF83E885F985D9
:102CE600AA85BB85AE17BF0750F02F5FA885B985AB
:102CF600EA85FB85EA1BFB0BEA87FB87EFCF2A33C6
:102D060028F003FF02C0295F01C0295D04FD1AC037
:102D1600213320F4A885B985119709F409C0531702
:102D260010F000FF01C013C020E207FF0BC020E334
:102D3600006102FF07C00B7F4A930E94641A50305D
:102D460009F051500E94551A503009F05150315037
:102D5600A885B985129708F0B5CF00FF08C0503096
:102D660031F05150E0E2EA930E94641AF8CF10E085
:102D7600DDCEAC85BD850E94E01A0E941C1B6496C0
:102D86000895FF92F82E26970E94171B0E947E1A1E
:102D9600309719F4EFEFFFEF25C0DE0116960E947B
:102DA600A01A8D010E947E1AEE83FF83E0E0E88779
:102DB600E987DE011A960E94A01A0E94E01AFA9389
:102DC600EA931A930A93E7E5F5E1FA93EA93FE018B
:102DD6003A96FA93EA93A0DE9F01AE81BF81E0E0C6
:102DE600EC93F9010E941E1B2A96FF900895E88134
:102DF600E07111F0C49A01C0C498E881E07211F044
:102E0600C59A01C0C598E881E07411F0C69A01C060
:102E1600C698E881E07811F0C79A01C0C7988BE0A0
:102E26008A95F1F7C29A8BE18A95F1F7C2988BE100
:102E36008A95F1F79FC0E881EA93D9DFE881E295A8
:102E4600E883E881EA93D3DF88EC90E00197F1F715
:102E560091C0E881F0E0EB51FA4FE081A981EA0FD9
:102E6600EA93E9DFE981E093E905E881E093EA0581
:102E760022960895E2E00E94851AECE0EA93DBDFF1
:102E8600E1E00E94851AE0E0E093EA05E093E905B7
:102E96000895A881AA3031F0E091EB05A091E905EB
:102EA600AE1768F0E0E0EA93E091EA05EF5FE093A1
:102EB600EA05EA93CEDFA881AA3009F45BC0E09167
:102EC600E905EF5FE093E905C09AE881EA93B3DF8D
:102ED600C09850C01A93A981BA81ED91A983BA838B
:102EE6001E2FE03019F01A93D4DFF5CF0EC01A93D7
:102EF600E981FA813196E983FA833197E4911E2FAD
:102F0600E03019F01A93C5DFF3CF188123960895A0
:102F1600BC9ABD9ABE9ABF9ABA9AB89AB99AC298FA
:102F2600C098C198E881E093EB05E058E093E70587
:102F3600E881E054E093E805E4E1F0E00E94AE1891
:102F46000E948B1A0E948B1A0E948B1AE0E2EA9367
:102F56004EDF80E991E00197F1F7E8E2EA936BDF53
:102F6600E4E0EA9368DFE5E8EA9365DFE6E0EA9302
:102F760062DF80DF21960895A991B991EE27FF2798
:102F86006D91662311F03196FBCF0895AA27BB27D2
:102F9600E991F9910590002011F01196FBCFFD0102
:102FA60008951A930A9300E010E00895E1E0EA9389
:102FB6000C942C17EFE5EA930C944C17E0E5F0E03F
:102FC600FA93EA930C94941AEFEFEA930C944C1745
:102FD6000E943D17E0E0EA93EA930C942C17FA93CB
:102FE600EA930C947A17ECE2F1E0FA93EA930C94E4
:102FF600941AE091BE03F0E00895E0917F02F0910B
:1030060080020895A0917B02B0917C020895E09120
:103016008902F0E00895A0917F02B09180020895A0
:103026000E94B51AE80DF91DBF01A0918102B09169
:103036008202E3DFEA1BFB0BDF01E0918A02F0E08C
:103046000E94B51A0895E0918B02F0E0DBDF0E9442
:10305600B51ADF01E3E2F0E00E94CD1A0895E0E040
:10306600F0E0FA93EA9308950E94171BEFEFF0E061
:10307600EC19FD09EF5FF0408F01F60130969F01D4
:103086000895E25EFA4FE081E0938305A09179020C
:10309600B0917A02EFEFF0E0EA1BFB0BEF5FF04036
:1030A6008F01F60130969F010895E0918305F0E0C7
:1030B600FA93EA930C94941AE0E0EA9377CFE4EF5C
:1030C600F1E0FA93EA930C94941AE0E0EA93EA9317
:1030D6000C942C17E2ECF5E0FA93EA930895FF2797
:1030E600662777270E94E81A0895F8010E94A81A11
:1030F6000E94E81A089588E00E94C4162C96089546
:10310600EA930E940E035E2FA7EAB5E0A20FB31F53
:10311600EC915E170895A9E9B5E0A20FB31FEC91F3
:10312600E5170895EC91F0E008950E9486030C944B
:103136008A0384E00E94C4162896BECFE1E0F0E040
:10314600E017F1070895F0E031970895E2E0F0E026
:10315600E017F1070895FA93EA930C94941AC39A28
:10316600EDE0F1E03CCFFA93EA93BFCFA00FB11F99
:10317600EC91B5CFF80131968F01DF01E0918D0218
:10318600F0E0EA17FB070895F80131978F01EF3F4A
:10319600AFEFFA070895F801E257FD4F0F01AEE8C9
:1031A600B2E0A00FB11F0895EC91EF5FD001EC9350
:1031B60008950E943D17E0E0E093BD030895E09175
:1031C6008D02A091BD03EA170895A091BD03B0E05A
:1031D6000895E091BD03F0E00895E091BD03EF5F2F
:1031E600E093BD030895E6E9F0E0B5CF1A930A939C
:1031F60001E010E00895F801E25EFA4F0F01AEE13A
:10320600B5E0A00FB11F0895EC91EB5FD001EC93F0
:103216000895F801ED50FD4F0F01A3EFB2E0A00FA6
:10322600B11F0895F801E85AFC4F0F01A8E5B3E075
:10323600A00FB11F0895F801EA5DFB4F0F01A6E24A
:10324600B4E0A00FB11F0895F801E55CFB4F0F0134
:10325600ABE3B4E0A00FB11F08950E940E03E09304
:1032660093050895E4E0EA93E0E0EA930E942C17C0
:10327600E1E1F1E0B4CE0E94A81A0E94E81A59CF03
:10328600E881F9813196E883F9830C943D17E2E0F1
:10329600EA93E0E0EA930E942C17EDE4F2E09FCE79
:1032A600E0917902F0917A020895E0937902F09321
:1032B6007A0299CFE0918502F09186020895E09313
:1032C6008502F09386020895A0918502B091860248
:1032D6000895A0918302B09184020895E09183023B
:1032E600F09184020895E0938302F0938402089596
:1032F600F0E0EA17FB070895E0919405F0E0EB573C
:10330600FA4F0895EA93E0E0EA930E942C17F4CF6F
:10331600E081A0919305EA170895E091B805F09130
:10332600B9050895E093B805F093B9054DCEE0933D
:10333600BC05F093BD050895E0919405EF5FE09319
:1033460094050895E093BA05F093BB05E0919505C1
:1033560008950F01E154FC4FA081F001E257FD4FA3
:10336600E081AE1708950E94A81A0E94E81A0895EF
:1033760080E10E94C4166496ADCEA091B805B091C6
:10338600B905EFEFFFE0EA1BFB0BDCCFF0E0ADE0A9
:10339600B0E00E94ED1AEA1BFB0BE0939605C39A78
:1033A6000895E091BA05F091BB050895E0937F0278
:1033B600F09380020895E0E0E0937F02E0938002BC
:1033C6000895689421F8E4E3F0E0F0DF0E949503A5
:1033D600E1E0E093B5050895A091BA05B091BB056B
:1033E6000895689421F8ECECFFEFE0DF0E949D035E
:1033F600E1E0E093B5050895ED91FD913196FE93D8
:10340600EE930895E8ECF0E0A6CEE9E0EA93CECD9F
:10341600E1EEF3E0E4CDA091E305B091E405089573
:10342600A0919405B0E0A050B0400895A959BE4FB0
:103436000E94F41AD001EC930895A453BE4F0E9443
:10344600F41AD001EC930895AF5CBD4F0E94F41AB4
:10345600D001EC930895AE5ABE4F0E94F41AD001E3
:10346600EC930895A35CBE4F0E94F41AD001EC932E
:103476000895A25FBF4F0E94F41AD001EC930895FD
:10348600AD58BF4F0E94F41AD001EC930895A8528C
:10349600BF4F0E94F41AD001EC9308950E94F41ACB
:1034A600F0E008952A93ED85FE85FA93EA93E9897B
:1034B600FA8909950895E889F9893497E88BF98B93
:1034C6000895ED85FE85FA93EA93E989FA890995C7
:1034D6000895A889B98914960E94E01AEE83FF839D
:1034E600FA93EA930895A889B98914960E94E01A76
:1034F600EA87FB870895DE011C960E94A01A0E94A7
:10350600E01A0895EA930E941E17E3E0F0E023CE46
:10351600E0E3EA930E94FA1680E991E00197F1F759
:103526000895E991F991309639F080EA9FE0019784
:10353600F1F7A8953197C9F708950024AF0DB01D8E
:103546000895F195E195F04008956F2F660F660B8B
:10355600762F0895FA9FF02DEB9FF00DEA9FE02D50
:10356600F10D08951CD0F6DF0EF4EBDF089500246C
:10357600112490E1AA0FBB1F001C111C0E1A1F0A72
:1035860018F40E0E1F1E01C0A1609A9599F7FD0151
:10359600D001089504D0EBDF0EF4D3DF0895E8944C
:1035A600F7FF02C0CEDF6894B7FF06C0A095B095BE
:1035B600119600F8039400FA0895ED91FC91119785
:1035C60008950590F491E02D08957A936A93FA93FD
:1035D600EA9308951B2EBF2FF12D1A2EAE2FE12D43
:1035E6000895E199FECFFF93FFB7F894AEBBBFBB3A
:1035F600E09AEDB3FFBFFF910895E19B02C0A89545
:10360600FCCF9FB7F894AEBBBFBBE09A8DB3E8176B
:1036160019F0EDBBE29AE19A9FBF089500240A16BD
:103626000B0608955A934A933A932A931A930A9348
:1036360008955D814C813B812A8119810881089515
:00000001FF
